:100000000EC01DC01CC01BC01AC019C018C017C02C
:1000100016C015C014C013C012C011C010C01124E6
:100020001FBECFE5D2E0DEBFCDBF10E0A0E6B0E05E
:1000300001C01D92A137B107E1F749D1CFC1E0CF8F
:10004000C49ABC98C49A86B38295817091E089273E
:10005000BC9A90916F0094FDC498089587B3866010
:1000600087BBB898C09A81E18DB98DB908958FB9D1
:1000700091E19DB983E18DB99DB98DB99DB98DB9D6
:100080009DB98DB99DB98DB99DB98DB99DB98DB900
:100090009DB98DB98FB10895EF92FF920F931F9381
:1000A000CF93DF93C82F142F052FF62EE72E87FF4F
:1000B00009C040E050E0BA0187E7EEDFD82F823078
:1000C000B8F5CF77C39A8FEFD2DFC3988FEFCFDF2A
:1000D0008C2F8064CCDF8E2DCADF8F2DC8DF802F60
:1000E000C6DF812FC4DFC03421F0C83421F081E0A5
:1000F00003C085E901C087E8BADF1AE08FEFB7DFF8
:10010000D82F87FD03C0C13521F412C01150B1F7BB
:10011000FACFCD3469F088EB8C0F833048F08C2F08
:100120008F7E8A3629F0CB3519F0C39A8FEF9FDF87
:100130008D2FDF91CF911F910F91FF90EF90089538
:10014000CF93DF9310926000C39ACAE0D0E08FEFA4
:100150008EDF21972097D9F7CAE0D0E040E050E049
:10016000BA0180E499DF813029F021972097B1F717
:1001700081E046C04AEA51E060E070E088E48CDF4C
:100180008130B9F48FEF73DF8FEF71DF8FEF6FDFA7
:100190008FEF6DDFC0E2DEE440E050E060E070E44D
:1001A00089EE7ADF882319F021972097A9F782E05A
:1001B00022C040E050E0BA018AE76EDF8130E9F406
:1001C0008FEF55DF8FEF53DF8FEF51DF8FEF4FDF73
:1001D000C0E2DEE440E050E0BA0181E45DDF882364
:1001E00019F021972097B1F740E052E060E070E00D
:1001F00080E552DF81E0809360008FEF38DF80E0A0
:10020000DF91CF910895CF93DF93E1E6F0E0119273
:1002100080E0E137F807D9F740E050E0BA0189E41F
:100220003BDFC4E68FEF23DF8F3F19F4C150D1F7D6
:100230000FC08E3F69F4C1E6D0E08FEF18DF8993DD
:1002400080E0C137D807C9F78FEF11DF80E001C028
:1002500083E0DF91CF91089520E297FF02C0C49818
:1002600001C0C49A3FEB4AED50E03150404050404D
:10027000E1F700C00000660F771F881F991F611506
:1002800071058105910511F0215039F7089558DF66
:10029000882331F060E070E080E090EADDDFF7CFA6
:1002A000B2DF882331F060E070E080E095EAD4DFCF
:1002B000F7CF089580916F0084FF05C060E070E083
:1002C00080E090E803C060E070E0CB01C5CF87B369
:1002D0008C6087BBC39AC2DEBC9A60E070E08BE49E
:1002E00094E8BADFD4DF00E1E5DFAADE8130E1F790
:1002F000C5E02FEF80E792E0215080409040E1F789
:1003000000C000009DDE813079F7C15091F7109157
:100310006F00812F802780936F0040E050E0BA018A
:100320008BE5BADE811119C08EEFA1DEC1E6D0E007
:1003300089919DDE20E0C037D207D1F781E097DEBA
:100340008FEF95DE8FEF93DECFEFDFEF8FEF8FDE56
:10035000811141C021972097C9F76FE070E0CB0170
:100360007BDF6FE070E0CB0177DF6FE070E0CB0107
:1003700073DF8DDF20916F00207130E01071812FCD
:1003800090E02817390761F463E070E0CB0164DF87
:1003900063E070E0CB0160DF63E070E0CB015CDF25
:1003A00089DF4EDE882339F08FE493EC0197F1F773
:1003B00000C00000F6CFC5E09FEF20E782E091503B
:1003C00020408040E1F700C000003ADE8111ECCF10
:1003D000C15091F789CFCD2B61F6BFCFF894FFCFF5
:00000001FF
